:020000020000FC
:0200000033C00B
:02002C000BC106
:02004000F7C007
:100068000FEF0DBF08E00EBF22982A9A3B9A439AD9
:100078003A9A429A2098289A219A00EF0AB90FEFE3
:100088000BB9239A249A259A2B982C982D9800E03E
:1000980004BD09EB06BD04E005BD00E00093800047
:1000A8000AE00093810000E000936F001124789427
:1000B800A6D0FECF03B002FA16F4439A08954398E7
:1000C8000895089513B010FA16F0439A08954398C6
:1000D8000895439803D0439A01D0089544E628EC44
:1000E8003FEF3A95F1F72A95D9F74A95C1F7089560
:1000F800199A01D0089558E16FEF6A95F1F75A956A
:10010800D9F7089503B002FA2EF410E010936E00A8
:100118002998089511E010936E00089513B010FA0D
:100128003EF008E00093890000EE009388000895EF
:1001380004E0009389000FE600938800089520E00A
:100148000FE70BB9000019B1312F3F703F3019F09C
:1001580061E021E07CC00FEB0BB9000019B1312F31
:100168003F703F3019F062E021E071C00FED0BB92C
:10017800000019B1312F3F703F3019F063E021E0E2
:1001880066C00FEE0BB9000019B1312F3F703F3038
:1001980019F064E021E05BC0203009F484C00895C0
:1001A80002E088D000E086D000E084D000E082D071
:1001B80003E080D000E07ED000E07CD000E07AD080
:1001C80000E078D000E076D001E074D07ED00895C9
:1001D80050E061E0552319F4F2E0E6EE02C0F2E0E7
:1001E800E0EF2AE0059166D02A95E1F7062F62D064
:1001F8006CD050955170660F69F761E00895F2E090
:10020800EAEF61E028E000E055D049E000E052D094
:100218004A95E1F705914ED0062F4CD056D05BD0C9
:10022800660F2A9581F708950F930FB70F9309EB7F
:1002380006BD199A0F910FBF0F9118950F930FB71D
:100248000F93199A0F910FBF0F9118950895613068
:1002580019F0623031F01BC04B9B06C04A9B0BC0A3
:1002680016C04B9B0EC013C04298439810E01093E1
:100278006F0029980895439810E010936F0029980B
:100288000895429810E010936F0029980895439AB2
:10029800429A08E00093890000EE0093880012E07B
:1002A80010936F000895439A429A10E010936F00DC
:1002B8002998089518E088942B98000F08F42B9A31
:1002C8002D982D9A1A95C1F708952C982C9A00000C
:1002D80000002C98089544E14A95F1F70895AAAAD8
:1002E800AAAAAAAAAAAAAAAA55555555555555550E
:1002F80055551824427E424242007C42427C42428A
:020308007C0077
:00000001FF
