:020000020000FC
:0200000033C00B
:020038007DC089
:02002C00B7C05B
:02002400C3C057
:100068000FEF0DBF08E00EBF1124F89422982A9ACA
:10007800389839982098289A3B9A439A3A9A429AFB
:10008800219A299800EF0AB90FEF0BB9239A249AFD
:10009800259A2B982C982D9800E600937C00002731
:1000A80000937B0003E000937E0007E800937A004A
:1000B80002E004BD03E607BD04E005BD02E00093CD
:1000C8006E0000E0009380000AE00093810000E0E9
:1000D80000936F0000E00093B00004E00093B100CB
:1000E80001E0009370008AD0789425D100919A019C
:1000F800002369F0002700939A0133D137D2009189
:10010800990100FD04C0072D002309F4A0D4009133
:100118009B01002351F3002700939B010091990153
:1001280000FFE3CF01FFE1CFF1D2DFCF0F930FB78D
:100138000F931F932F933F934F93EF93FF930F9238
:100148001F922AE0229EE02DF12D112408E311E0F0
:10015800E00FF11F2AE03190032D43D52A95D9F7F6
:1001680001E0222D222319F0000F2A95E9F739D54D
:1001780043D52394022D083008F022241F900F90B5
:10018800FF91EF914F913F912F911F910F910FBFC9
:100198000F9118950F930FB70F93199A0F910FBFDF
:1001A8000F9118950F930FB70F931F9300919C0110
:1001B80003950A3090F0002700939A0101E000931C
:1001C8009A017394072D093138F077240091990129
:1001D80014E0012700939901002700939C01639480
:1001E800062D10919D01011720F0662401E000936F
:1001F8009B011F910F910FBF0F9118952224332453
:10020800662477244424552488249924AA24BB24CA
:10021800CC24002700939A0100939B0100939C0132
:1002280000939D0100939F010093A0010093910109
:1002380000939701009398010FEF00939E0101EE40
:1002480000939401802E0CEA00939501902E0EE104
:1002580000939601A02E03E00093990108E700930C
:10026800920100E00093930105D0BFD2ABD3C4D371
:10027800EED308950F931F932F93EF93FF9300915D
:10028800920110919301112349F40C3330F40CE3DB
:10029800112700939201109393010CC0113050F074
:1002A80019F40C3238F031F00CE211E000939201AD
:1002B800109393010C5310402227112311F40A3094
:1002C80020F00A5010402395F8CFEEE3FCE0E20F4F
:1002D8001127F11F049100939D01FF91EF912F9138
:1002E8001F910F9108950F931F9300919201109100
:1002F8009301113011F40C3238F4065F1F4F00934C
:10030800920110939301B6DF1F910F9108950F93F7
:100318001F930091920110919301112311F40D3351
:1003280038F00A5010400093920110939301A2DF15
:100338001F910F91089500919901102F189B02C0E9
:10034800016001C00E7F00939901102710FF0895E6
:1003580000FD05C0046000939901772446D277D345
:1003680008950AD000919E01101729F010939E015C
:100378001F3F09F070D008951FEF0FEF0BB900EF82
:100388000AB90FE70BB90000000039B13F703F30E0
:1003980081F04B9B17E04B9B59C04A9B18E04A9B46
:1003A80055C0499B19E0499B51C0489B1FE0489B99
:1003B8004DC00FEB0BB90000000039B13F703F3062
:1003C80081F04B9B14E04B9B41C04A9B15E04A9B34
:1003D8003DC0499B16E0499B39C0489B1EE0489B9D
:1003E80035C00FED0BB90000000039B13F703F3048
:1003F80081F04B9B11E04B9B29C04A9B12E04A9B22
:1004080025C0499B13E0499B21C0489B1DE0489BA0
:100418001DC00FEE0BB90000000039B13F703F302E
:1004280081F04B9B1AE04B9B11C04A9B10E04A9B02
:100438000DC0499B1BE0499B09C0489B1CE0489B99
:1004480005C00FEF0BB900EF0AB908950FEF0BB90C
:1004580000EF0AB90895173009F42BC0183009F4D1
:100468002DC0193009F42FC0143009F431C01530EB
:1004780009F433C0163009F435C0113009F437C017
:10048800123009F446C01D3009F447C01A3009F487
:1004980046C0103009F44CC01B3009F452C01C305F
:1004A80009F458C01E3009F45EC01F3009F45CC05E
:1004B80008950EE100939601A02E08950AE5009391
:1004C8009601A02E08950EE600939601A02E089599
:1004D80000E000939701B02E089501E00093970182
:1004E800B02E089502E000939701B02E0895009170
:1004F80094011091950126B502272AE2122700934C
:10050800940110939501802E912E5CD275D29FD2C2
:1005180008956BD157D29BD2089570DE089500914B
:100528009801002321F00A9500939801C02E0895A0
:1005380000919801013020F4039500939801C02E92
:1005480008950091990122E002270093990101FF83
:100558004CD108950091990128E002270093990150
:1005680003FD43D1089508950895089551D020E0DA
:1005780068D0303CD0F4303450F021E062D0303CC8
:1005880068F5303400F1002700939F01089501E0D9
:1005980031D0002371F12091990120FD03C070D062
:1005A80056D20895B4DE53D2089502E023D0002332
:1005B80001F12091990120FD03C068D048D2089527
:1005C80092DE45D2089504E015D0002391F02091E1
:1005D800990120FD01C00895ABDF089508E00AD015
:1005E800002339F02091990120FD01C0089597DF7B
:1005F800089508951F93102F00919F01011729F066
:1006080010939F0101E01F91089500271F910895FD
:1006180011271A9B11E00091A001101789F010937F
:10062800A001112369F00091990100FD03C036D0A3
:100638000ED206C022E002270093990101FFD5D00F
:1006480008950F932F932F70206620937C0000004D
:10065800000000917A00006400937A0000917A000B
:1006680006FDFCCF309179002F910F9108954091AC
:10067800910108954093910108955527089508958B
:10068800F6DF442311F04A95F5DF0895F0DF4F3186
:1006980010F44395EFDF0895089508951F932F935D
:1006A8003F934F935F93EF93FF93E1DF142FE5DFC1
:1006B800252F0ED0408143274083222309F453D1AC
:1006C800FF91EF915F914F913F912F911F91089565
:1006D8000F931F932F934F93022F000F000F412F5B
:1006E800469546954695040FE0E0F1E0E00F442773
:1006F800F41F412F477031E0442319F0330F4A9516
:10070800FBCF4F912F911F910F910895A0D111D038
:10071800009190010395003240F00027009390016A
:10072800402E6AD036D193D1089500939001402E7F
:1007380008951F932F933F934F93EF93FF93009147
:10074800990101FF23C003FD21C02091900188D0A9
:100758003323E1F000919701013029F0023031F0A4
:10076800E8ECFCE005C0E8EEFCE002C0E8E0FDE0F3
:1007780010919001E10F2227F21F14912091980106
:100788003CE0239F100D112409D001C02ED0FF9109
:10079800EF914F913F912F911F9108950F932F93B0
:1007A8003F934F93EF93FF931033B8F4212F3327E0
:1007B800220F331FE8E6FCE0E20FF31F2591349186
:1007C80030938900209388000027009385000093C8
:1007D800840002E000936F0001C007D0FF91EF9101
:1007E8004F913F912F910F9108950F9300270093F8
:1007F8006F0029980F9108952F933F934F935F931C
:100808006F937F9374D04427242F222311F42FE170
:1008180001C02A9525D0330F330F532F242F20D012
:10082800330F532B242F2395203208F0222718D07A
:10083800532B60919601752F772319F066957A9559
:10084800FBCF6170242F362F2FD043954032E0F232
:100858005ED07F916F915F914F913F912F91089555
:100868000F932F934F935F93EF93FF93422F4695E8
:1008780046954695E8E8F1E0E40F0027F01F50811F
:10088800422F477031E0442319F0330F4A95FBCFCC
:10089800532311F031E001C03327FF91EF915F91AD
:1008A8004F912F910F910895332301F10F932F93B7
:1008B8004F935F93EF93FF93422F46954695469546
:1008C800ECE8F1E0E40F0027F01F422F477051E0F9
:1008D800442319F0550F4A95FBCF0081052B00835F
:1008E800FF91EF915F914F912F910F9108950F9381
:1008F8002F93EF93FF93ECE8F1E024E000270193B6
:100908002A95E9F7FF91EF912F910F9108950F9391
:100918002F93CF93DF93EF93FF93ECE8F1E0C8E8D0
:10092800D1E024E0019109932A95E1F7FF91EF9135
:10093800DF91CF912F910F9108950F932F93CF931C
:10094800DF93EF93FF93E8E8F1E0C0E0D1E024E023
:10095800019109932A95E1F7FF91EF91DF91CF91EA
:100968002F910F9108950F932F93CF93DF93EF93C8
:10097800FF93E0E0F1E0C8E8D1E024E001910993B9
:100988002A95E1F7FF91EF91DF91CF912F910F9188
:1009980008950F932F93CF93DF93EF93FF93E3E3A0
:1009A800F1E0C7E3D1E024E3008108833197219780
:1009B8002A95D1F7FF91EF91DF91CF912F910F9168
:1009C800BCDF08950F93CF93DF93EF93FF93E0E09D
:1009D800F1E0C0E4D0E0002701932197E9F7E8E3CC
:1009E800F1E0C0E5D0E001932197E9F7FF91EF919D
:1009F800DF91CF910F9108952F933F93EF93FF933A
:100A0800E8E8F1E00BD02193319308D0219331939A
:100A180094DFFF91EF913F912F9108950F934F939A
:100A28005F932091940130919501422F4170369542
:100A38002795442311F054EB3527209394013093E4
:100A48009501822E932E5F914F910F9108950F93E8
:100A58001F932F937F938F939F93CF93DF9363D0AD
:100A6800C0E0D1E05527442784E0799198E070FFF1
:100A780002C061E06BD0769543959A95C1F78A9547
:100A8800A1F753955E3078F309D0DF91CF919F910C
:100A98008F917F912F911F910F9108950091990146
:100AA80000FF09C040919001552761E04FD0539550
:100AB8005E30E0F309C0DBDDE0DD009199016627D7
:100AC80002FD61E043D000C00F932F937F938F9373
:100AD8009F93EF93FF934F935F936F93E8E5FCE049
:100AE8000091990100FD01C0389627E07591522FB9
:100AF8005A9543E285E090E16627072F092309F01C
:100B080061E024D0439596958A95B1F72A9571F7B7
:100B18006F915F914F91FF91EF919F918F917F918D
:100B28002F910F9108950F93CF93DF93EF93FF9336
:100B3800E8E3F1E0C0E5D0E0002701932197E9F769
:100B4800FF91EF91DF91CF910F9108950F931F932C
:100B58002F933F934F935F937F938F939F93EF933D
:100B6800FF930F921F92483268F55E3058F5573060
:100B780028F47FE4741B86E0851B04C077E2741BAD
:100B88008DE0851B2AE0829FE02DF12D1124272F6F
:100B9800269526952695E20F2227F21F08E311E0F5
:100BA800E00FF11F272F277090E8222319F0969560
:100BB8002A95FBCF0081662311F0092B02C090957E
:100BC800092300831F900F901124FF91EF919F91AB
:100BD8008F917F915F914F913F912F911F910F912D
:100BE800089518E088942B98000F08F42B9A2D98F4
:100BF8002D9A1A95C1F708952C982C9A0000000098
:100C08002C98089523F442D11AB7C2A27B922A8560
:100C1800117AAD70A168A7618D5B2A566051184D95
:100C28003D49C0459442AF3F083D973A5638403653
:100C380050348232D330F4D1B7A392857A71696285
:100C48005C56514D494643403D3B383634333100BC
:100C58001E11111E141211001F10101E10101F005B
:100C68007177BD70696A7064CD5E7B597554B74FF2
:100C78003E4B05470843453FB83B5E38343537326D
:100C8800662FBD2C3A2ADB279E2582238321A21FAB
:100C9800DC1D2E1C991A1B19B3175E161C15ED13B3
:100CA800CF12C011C110D10FEE0E170E4C0D8D0CC6
:100CB800D90B2E0B8E0AF6096709DF086008E807CA
:100CC8000000020204050707090B0C0C0E10111393
:100CD80013151718181A1C1D1F1F2123232323233C
:100CE8000000020303050707080A0C0C0E0F111178
:100CF80013141618181A1B1D1F1F20222222222225
:100D0800000002020404070709090C0C0E0E10105B
:100D18001313151518181A1A1C1C1F1F212121211D
:00000001FF
